{
  "_format": "hh-sol-artifact-1",
  "contractName": "Crowdfunding",
  "sourceName": "contracts/Crowdfunding.sol",
  "abi": [
    {
      "anonymous": false,
      "inputs": [
        {
          "indexed": true,
          "internalType": "uint256",
          "name": "id",
          "type": "uint256"
        },
        {
          "indexed": true,
          "internalType": "address",
          "name": "creator",
          "type": "address"
        },
        {
          "indexed": false,
          "internalType": "string",
          "name": "title",
          "type": "string"
        },
        {
          "indexed": false,
          "internalType": "uint256",
          "name": "goal",
          "type": "uint256"
        },
        {
          "indexed": false,
          "internalType": "uint256",
          "name": "deadline",
          "type": "uint256"
        }
      ],
      "name": "CampaignCreated",
      "type": "event"
    },
    {
      "anonymous": false,
      "inputs": [
        {
          "indexed": true,
          "internalType": "uint256",
          "name": "campaignId",
          "type": "uint256"
        },
        {
          "indexed": true,
          "internalType": "address",
          "name": "contributor",
          "type": "address"
        },
        {
          "indexed": false,
          "internalType": "uint256",
          "name": "amount",
          "type": "uint256"
        }
      ],
      "name": "ContributionMade",
      "type": "event"
    },
    {
      "anonymous": false,
      "inputs": [
        {
          "indexed": true,
          "internalType": "uint256",
          "name": "campaignId",
          "type": "uint256"
        },
        {
          "indexed": false,
          "internalType": "uint256",
          "name": "amount",
          "type": "uint256"
        }
      ],
      "name": "FundsClaimed",
      "type": "event"
    },
    {
      "anonymous": false,
      "inputs": [
        {
          "indexed": true,
          "internalType": "address",
          "name": "previousOwner",
          "type": "address"
        },
        {
          "indexed": true,
          "internalType": "address",
          "name": "newOwner",
          "type": "address"
        }
      ],
      "name": "OwnershipTransferred",
      "type": "event"
    },
    {
      "inputs": [],
      "name": "campaignCount",
      "outputs": [
        {
          "internalType": "uint256",
          "name": "",
          "type": "uint256"
        }
      ],
      "stateMutability": "view",
      "type": "function"
    },
    {
      "inputs": [
        {
          "internalType": "uint256",
          "name": "",
          "type": "uint256"
        }
      ],
      "name": "campaigns",
      "outputs": [
        {
          "internalType": "uint256",
          "name": "id",
          "type": "uint256"
        },
        {
          "internalType": "address payable",
          "name": "creator",
          "type": "address"
        },
        {
          "internalType": "string",
          "name": "title",
          "type": "string"
        },
        {
          "internalType": "string",
          "name": "description",
          "type": "string"
        },
        {
          "internalType": "uint256",
          "name": "goal",
          "type": "uint256"
        },
        {
          "internalType": "uint256",
          "name": "raised",
          "type": "uint256"
        },
        {
          "internalType": "uint256",
          "name": "deadline",
          "type": "uint256"
        },
        {
          "internalType": "bool",
          "name": "claimed",
          "type": "bool"
        },
        {
          "internalType": "bool",
          "name": "exists",
          "type": "bool"
        }
      ],
      "stateMutability": "view",
      "type": "function"
    },
    {
      "inputs": [
        {
          "internalType": "uint256",
          "name": "_campaignId",
          "type": "uint256"
        }
      ],
      "name": "claimFunds",
      "outputs": [],
      "stateMutability": "nonpayable",
      "type": "function"
    },
    {
      "inputs": [
        {
          "internalType": "uint256",
          "name": "_campaignId",
          "type": "uint256"
        }
      ],
      "name": "contribute",
      "outputs": [],
      "stateMutability": "payable",
      "type": "function"
    },
    {
      "inputs": [
        {
          "internalType": "uint256",
          "name": "",
          "type": "uint256"
        },
        {
          "internalType": "address",
          "name": "",
          "type": "address"
        }
      ],
      "name": "contributions",
      "outputs": [
        {
          "internalType": "uint256",
          "name": "",
          "type": "uint256"
        }
      ],
      "stateMutability": "view",
      "type": "function"
    },
    {
      "inputs": [
        {
          "internalType": "string",
          "name": "_title",
          "type": "string"
        },
        {
          "internalType": "string",
          "name": "_description",
          "type": "string"
        },
        {
          "internalType": "uint256",
          "name": "_goal",
          "type": "uint256"
        },
        {
          "internalType": "uint256",
          "name": "_durationInDays",
          "type": "uint256"
        }
      ],
      "name": "createCampaign",
      "outputs": [
        {
          "internalType": "uint256",
          "name": "",
          "type": "uint256"
        }
      ],
      "stateMutability": "nonpayable",
      "type": "function"
    },
    {
      "inputs": [
        {
          "internalType": "uint256",
          "name": "_campaignId",
          "type": "uint256"
        }
      ],
      "name": "getCampaign",
      "outputs": [
        {
          "internalType": "uint256",
          "name": "id",
          "type": "uint256"
        },
        {
          "internalType": "address",
          "name": "creator",
          "type": "address"
        },
        {
          "internalType": "string",
          "name": "title",
          "type": "string"
        },
        {
          "internalType": "string",
          "name": "description",
          "type": "string"
        },
        {
          "internalType": "uint256",
          "name": "goal",
          "type": "uint256"
        },
        {
          "internalType": "uint256",
          "name": "raised",
          "type": "uint256"
        },
        {
          "internalType": "uint256",
          "name": "deadline",
          "type": "uint256"
        },
        {
          "internalType": "bool",
          "name": "claimed",
          "type": "bool"
        }
      ],
      "stateMutability": "view",
      "type": "function"
    },
    {
      "inputs": [
        {
          "internalType": "uint256",
          "name": "_campaignId",
          "type": "uint256"
        },
        {
          "internalType": "address",
          "name": "_contributor",
          "type": "address"
        }
      ],
      "name": "getContribution",
      "outputs": [
        {
          "internalType": "uint256",
          "name": "",
          "type": "uint256"
        }
      ],
      "stateMutability": "view",
      "type": "function"
    },
    {
      "inputs": [],
      "name": "owner",
      "outputs": [
        {
          "internalType": "address",
          "name": "",
          "type": "address"
        }
      ],
      "stateMutability": "view",
      "type": "function"
    },
    {
      "inputs": [],
      "name": "renounceOwnership",
      "outputs": [],
      "stateMutability": "nonpayable",
      "type": "function"
    },
    {
      "inputs": [
        {
          "internalType": "address",
          "name": "newOwner",
          "type": "address"
        }
      ],
      "name": "transferOwnership",
      "outputs": [],
      "stateMutability": "nonpayable",
      "type": "function"
    }
  ],
  "bytecode": "0x608060405234801561001057600080fd5b50600160008190555061003561002a61003a60201b60201c565b61004260201b60201c565b610108565b600033905090565b6000600160009054906101000a900473ffffffffffffffffffffffffffffffffffffffff16905081600160006101000a81548173ffffffffffffffffffffffffffffffffffffffff021916908373ffffffffffffffffffffffffffffffffffffffff1602179055508173ffffffffffffffffffffffffffffffffffffffff168173ffffffffffffffffffffffffffffffffffffffff167f8be0079c531659141344cd1fd0a4f28419497f9722a3daafe3b4186f6b6457e060405160405180910390a35050565b611f46806101176000396000f3fe60806040526004361061009c5760003560e01c80637274e30d116100645780637274e30d146101a75780638da5cb5b146101d2578063a318f269146101fd578063c1cbbca71461023a578063e081dbf914610256578063f2fde38b146102935761009c565b8063141961bc146100a15780631b55e338146100e65780633d891f591461010f5780635598f8cc1461014c578063715018a614610190575b600080fd5b3480156100ad57600080fd5b506100c860048036038101906100c39190611098565b6102bc565b6040516100dd999897969594939291906111c0565b60405180910390f35b3480156100f257600080fd5b5061010d60048036038101906101089190611098565b610454565b005b34801561011b57600080fd5b5061013660048036038101906101319190611299565b61070e565b60405161014391906112d9565b60405180910390f35b34801561015857600080fd5b50610173600480360381019061016e9190611098565b610733565b604051610187989796959493929190611303565b60405180910390f35b34801561019c57600080fd5b506101a561092e565b005b3480156101b357600080fd5b506101bc610942565b6040516101c991906112d9565b60405180910390f35b3480156101de57600080fd5b506101e7610948565b6040516101f4919061138f565b60405180910390f35b34801561020957600080fd5b50610224600480360381019061021f91906114df565b610972565b60405161023191906112d9565b60405180910390f35b610254600480360381019061024f9190611098565b610bf5565b005b34801561026257600080fd5b5061027d60048036038101906102789190611299565b610dcb565b60405161028a91906112d9565b60405180910390f35b34801561029f57600080fd5b506102ba60048036038101906102b5919061157e565b610e26565b005b60036020528060005260406000206000915090508060000154908060010160009054906101000a900473ffffffffffffffffffffffffffffffffffffffff169080600201805461030b906115da565b80601f0160208091040260200160405190810160405280929190818152602001828054610337906115da565b80156103845780601f1061035957610100808354040283529160200191610384565b820191906000526020600020905b81548152906001019060200180831161036757829003601f168201915b505050505090806003018054610399906115da565b80601f01602080910402602001604051908101604052809291908181526020018280546103c5906115da565b80156104125780601f106103e757610100808354040283529160200191610412565b820191906000526020600020905b8154815290600101906020018083116103f557829003601f168201915b5050505050908060040154908060050154908060060154908060070160009054906101000a900460ff16908060070160019054906101000a900460ff16905089565b61045c610ea9565b60006003600083815260200190815260200160002090508060070160019054906101000a900460ff166104c4576040517f08c379a00000000000000000000000000000000000000000000000000000000081526004016104bb90611657565b60405180910390fd5b8060010160009054906101000a900473ffffffffffffffffffffffffffffffffffffffff1673ffffffffffffffffffffffffffffffffffffffff163373ffffffffffffffffffffffffffffffffffffffff1614610556576040517f08c379a000000000000000000000000000000000000000000000000000000000815260040161054d906116c3565b60405180910390fd5b806006015442101561059d576040517f08c379a00000000000000000000000000000000000000000000000000000000081526004016105949061172f565b60405180910390fd5b8060070160009054906101000a900460ff16156105ef576040517f08c379a00000000000000000000000000000000000000000000000000000000081526004016105e69061179b565b60405180910390fd5b80600401548160050154101561063a576040517f08c379a000000000000000000000000000000000000000000000000000000000815260040161063190611807565b60405180910390fd5b60018160070160006101000a81548160ff0219169083151502179055508060010160009054906101000a900473ffffffffffffffffffffffffffffffffffffffff1673ffffffffffffffffffffffffffffffffffffffff166108fc82600501549081150290604051600060405180830381858888f193505050501580156106c5573d6000803e3d6000fd5b50817ff5113038110e08c7fac91012f7b68c6010271f7653a75b250e714f6d1e2d759082600501546040516106fa91906112d9565b60405180910390a25061070b610ef8565b50565b6004602052816000526040600020602052806000526040600020600091509150505481565b6000806060806000806000806000600360008b815260200190815260200160002090508060070160019054906101000a900460ff166107a7576040517f08c379a000000000000000000000000000000000000000000000000000000000815260040161079e90611657565b60405180910390fd5b80600001548160010160009054906101000a900473ffffffffffffffffffffffffffffffffffffffff1682600201836003018460040154856005015486600601548760070160009054906101000a900460ff16858054610806906115da565b80601f0160208091040260200160405190810160405280929190818152602001828054610832906115da565b801561087f5780601f106108545761010080835404028352916020019161087f565b820191906000526020600020905b81548152906001019060200180831161086257829003601f168201915b50505050509550848054610892906115da565b80601f01602080910402602001604051908101604052809291908181526020018280546108be906115da565b801561090b5780601f106108e05761010080835404028352916020019161090b565b820191906000526020600020905b8154815290600101906020018083116108ee57829003601f168201915b505050505094509850985098509850985098509850985050919395975091939597565b610936610f02565b6109406000610f80565b565b60025481565b6000600160009054906101000a900473ffffffffffffffffffffffffffffffffffffffff16905090565b60008083116109b6576040517f08c379a00000000000000000000000000000000000000000000000000000000081526004016109ad90611873565b60405180910390fd5b600082116109f9576040517f08c379a00000000000000000000000000000000000000000000000000000000081526004016109f0906118df565b60405180910390fd5b60026000815480929190610a0c9061192e565b9190505550600060025490506040518061012001604052808281526020013373ffffffffffffffffffffffffffffffffffffffff168152602001878152602001868152602001858152602001600081526020016201518085610a6e9190611976565b42610a7991906119b8565b815260200160001515815260200160011515815250600360008381526020019081526020016000206000820151816000015560208201518160010160006101000a81548173ffffffffffffffffffffffffffffffffffffffff021916908373ffffffffffffffffffffffffffffffffffffffff1602179055506040820151816002019081610b079190611b98565b506060820151816003019081610b1d9190611b98565b506080820151816004015560a0820151816005015560c0820151816006015560e08201518160070160006101000a81548160ff0219169083151502179055506101008201518160070160016101000a81548160ff0219169083151502179055509050503373ffffffffffffffffffffffffffffffffffffffff16817fdc26653af5b99b2da33e2ad69ee6600d9aeccc82b034501db4338309615ca23888876003600087815260200190815260200160002060060154604051610be193929190611c6a565b60405180910390a380915050949350505050565b610bfd610ea9565b60006003600083815260200190815260200160002090508060070160019054906101000a900460ff16610c65576040517f08c379a0000000000000000000000000000000000000000000000000000000008152600401610c5c90611657565b60405180910390fd5b80600601544210610cab576040517f08c379a0000000000000000000000000000000000000000000000000000000008152600401610ca290611cf4565b60405180910390fd5b60003411610cee576040517f08c379a0000000000000000000000000000000000000000000000000000000008152600401610ce590611d86565b60405180910390fd5b34816005016000828254610d0291906119b8565b92505081905550346004600084815260200190815260200160002060003373ffffffffffffffffffffffffffffffffffffffff1673ffffffffffffffffffffffffffffffffffffffff1681526020019081526020016000206000828254610d6991906119b8565b925050819055503373ffffffffffffffffffffffffffffffffffffffff16827f0a4a91237423e0a1766a761c7cb029311d8b95d6b1b81db1b949a70c98b4e08e34604051610db791906112d9565b60405180910390a350610dc8610ef8565b50565b60006004600084815260200190815260200160002060008373ffffffffffffffffffffffffffffffffffffffff1673ffffffffffffffffffffffffffffffffffffffff16815260200190815260200160002054905092915050565b610e2e610f02565b600073ffffffffffffffffffffffffffffffffffffffff168173ffffffffffffffffffffffffffffffffffffffff1603610e9d576040517f08c379a0000000000000000000000000000000000000000000000000000000008152600401610e9490611e18565b60405180910390fd5b610ea681610f80565b50565b600260005403610eee576040517f08c379a0000000000000000000000000000000000000000000000000000000008152600401610ee590611e84565b60405180910390fd5b6002600081905550565b6001600081905550565b610f0a611046565b73ffffffffffffffffffffffffffffffffffffffff16610f28610948565b73ffffffffffffffffffffffffffffffffffffffff1614610f7e576040517f08c379a0000000000000000000000000000000000000000000000000000000008152600401610f7590611ef0565b60405180910390fd5b565b6000600160009054906101000a900473ffffffffffffffffffffffffffffffffffffffff16905081600160006101000a81548173ffffffffffffffffffffffffffffffffffffffff021916908373ffffffffffffffffffffffffffffffffffffffff1602179055508173ffffffffffffffffffffffffffffffffffffffff168173ffffffffffffffffffffffffffffffffffffffff167f8be0079c531659141344cd1fd0a4f28419497f9722a3daafe3b4186f6b6457e060405160405180910390a35050565b600033905090565b6000604051905090565b600080fd5b600080fd5b6000819050919050565b61107581611062565b811461108057600080fd5b50565b6000813590506110928161106c565b92915050565b6000602082840312156110ae576110ad611058565b5b60006110bc84828501611083565b91505092915050565b6110ce81611062565b82525050565b600073ffffffffffffffffffffffffffffffffffffffff82169050919050565b60006110ff826110d4565b9050919050565b61110f816110f4565b82525050565b600081519050919050565b600082825260208201905092915050565b60005b8381101561114f578082015181840152602081019050611134565b60008484015250505050565b6000601f19601f8301169050919050565b600061117782611115565b6111818185611120565b9350611191818560208601611131565b61119a8161115b565b840191505092915050565b60008115159050919050565b6111ba816111a5565b82525050565b6000610120820190506111d6600083018c6110c5565b6111e3602083018b611106565b81810360408301526111f5818a61116c565b90508181036060830152611209818961116c565b905061121860808301886110c5565b61122560a08301876110c5565b61123260c08301866110c5565b61123f60e08301856111b1565b61124d6101008301846111b1565b9a9950505050505050505050565b6000611266826110d4565b9050919050565b6112768161125b565b811461128157600080fd5b50565b6000813590506112938161126d565b92915050565b600080604083850312156112b0576112af611058565b5b60006112be85828601611083565b92505060206112cf85828601611284565b9150509250929050565b60006020820190506112ee60008301846110c5565b92915050565b6112fd8161125b565b82525050565b600061010082019050611319600083018b6110c5565b611326602083018a6112f4565b8181036040830152611338818961116c565b9050818103606083015261134c818861116c565b905061135b60808301876110c5565b61136860a08301866110c5565b61137560c08301856110c5565b61138260e08301846111b1565b9998505050505050505050565b60006020820190506113a460008301846112f4565b92915050565b600080fd5b600080fd5b7f4e487b7100000000000000000000000000000000000000000000000000000000600052604160045260246000fd5b6113ec8261115b565b810181811067ffffffffffffffff8211171561140b5761140a6113b4565b5b80604052505050565b600061141e61104e565b905061142a82826113e3565b919050565b600067ffffffffffffffff82111561144a576114496113b4565b5b6114538261115b565b9050602081019050919050565b82818337600083830152505050565b600061148261147d8461142f565b611414565b90508281526020810184848401111561149e5761149d6113af565b5b6114a9848285611460565b509392505050565b600082601f8301126114c6576114c56113aa565b5b81356114d684826020860161146f565b91505092915050565b600080600080608085870312156114f9576114f8611058565b5b600085013567ffffffffffffffff8111156115175761151661105d565b5b611523878288016114b1565b945050602085013567ffffffffffffffff8111156115445761154361105d565b5b611550878288016114b1565b935050604061156187828801611083565b925050606061157287828801611083565b91505092959194509250565b60006020828403121561159457611593611058565b5b60006115a284828501611284565b91505092915050565b7f4e487b7100000000000000000000000000000000000000000000000000000000600052602260045260246000fd5b600060028204905060018216806115f257607f821691505b602082108103611605576116046115ab565b5b50919050565b7f43616d706169676e20646f6573206e6f74206578697374000000000000000000600082015250565b6000611641601783611120565b915061164c8261160b565b602082019050919050565b6000602082019050818103600083015261167081611634565b9050919050565b7f4f6e6c792063726561746f722063616e20636c61696d00000000000000000000600082015250565b60006116ad601683611120565b91506116b882611677565b602082019050919050565b600060208201905081810360008301526116dc816116a0565b9050919050565b7f43616d706169676e20686173206e6f7420656e64656400000000000000000000600082015250565b6000611719601683611120565b9150611724826116e3565b602082019050919050565b600060208201905081810360008301526117488161170c565b9050919050565b7f46756e647320616c726561647920636c61696d65640000000000000000000000600082015250565b6000611785601583611120565b91506117908261174f565b602082019050919050565b600060208201905081810360008301526117b481611778565b9050919050565b7f476f616c206e6f74207265616368656400000000000000000000000000000000600082015250565b60006117f1601083611120565b91506117fc826117bb565b602082019050919050565b60006020820190508181036000830152611820816117e4565b9050919050565b7f476f616c206d7573742062652067726561746572207468616e20300000000000600082015250565b600061185d601b83611120565b915061186882611827565b602082019050919050565b6000602082019050818103600083015261188c81611850565b9050919050565b7f4475726174696f6e206d7573742062652067726561746572207468616e203000600082015250565b60006118c9601f83611120565b91506118d482611893565b602082019050919050565b600060208201905081810360008301526118f8816118bc565b9050919050565b7f4e487b7100000000000000000000000000000000000000000000000000000000600052601160045260246000fd5b600061193982611062565b91507fffffffffffffffffffffffffffffffffffffffffffffffffffffffffffffffff820361196b5761196a6118ff565b5b600182019050919050565b600061198182611062565b915061198c83611062565b925082820261199a81611062565b915082820484148315176119b1576119b06118ff565b5b5092915050565b60006119c382611062565b91506119ce83611062565b92508282019050808211156119e6576119e56118ff565b5b92915050565b60008190508160005260206000209050919050565b60006020601f8301049050919050565b600082821b905092915050565b600060088302611a4e7fffffffffffffffffffffffffffffffffffffffffffffffffffffffffffffffff82611a11565b611a588683611a11565b95508019841693508086168417925050509392505050565b6000819050919050565b6000611a95611a90611a8b84611062565b611a70565b611062565b9050919050565b6000819050919050565b611aaf83611a7a565b611ac3611abb82611a9c565b848454611a1e565b825550505050565b600090565b611ad8611acb565b611ae3818484611aa6565b505050565b5b81811015611b0757611afc600082611ad0565b600181019050611ae9565b5050565b601f821115611b4c57611b1d816119ec565b611b2684611a01565b81016020851015611b35578190505b611b49611b4185611a01565b830182611ae8565b50505b505050565b600082821c905092915050565b6000611b6f60001984600802611b51565b1980831691505092915050565b6000611b888383611b5e565b9150826002028217905092915050565b611ba182611115565b67ffffffffffffffff811115611bba57611bb96113b4565b5b611bc482546115da565b611bcf828285611b0b565b600060209050601f831160018114611c025760008415611bf0578287015190505b611bfa8582611b7c565b865550611c62565b601f198416611c10866119ec565b60005b82811015611c3857848901518255600182019150602085019450602081019050611c13565b86831015611c555784890151611c51601f891682611b5e565b8355505b6001600288020188555050505b505050505050565b60006060820190508181036000830152611c84818661116c565b9050611c9360208301856110c5565b611ca060408301846110c5565b949350505050565b7f43616d706169676e2068617320656e6465640000000000000000000000000000600082015250565b6000611cde601283611120565b9150611ce982611ca8565b602082019050919050565b60006020820190508181036000830152611d0d81611cd1565b9050919050565b7f436f6e747269627574696f6e206d75737420626520677265617465722074686160008201527f6e20300000000000000000000000000000000000000000000000000000000000602082015250565b6000611d70602383611120565b9150611d7b82611d14565b604082019050919050565b60006020820190508181036000830152611d9f81611d63565b9050919050565b7f4f776e61626c653a206e6577206f776e657220697320746865207a65726f206160008201527f6464726573730000000000000000000000000000000000000000000000000000602082015250565b6000611e02602683611120565b9150611e0d82611da6565b604082019050919050565b60006020820190508181036000830152611e3181611df5565b9050919050565b7f5265656e7472616e637947756172643a207265656e7472616e742063616c6c00600082015250565b6000611e6e601f83611120565b9150611e7982611e38565b602082019050919050565b60006020820190508181036000830152611e9d81611e61565b9050919050565b7f4f776e61626c653a2063616c6c6572206973206e6f7420746865206f776e6572600082015250565b6000611eda602083611120565b9150611ee582611ea4565b602082019050919050565b60006020820190508181036000830152611f0981611ecd565b905091905056fea2646970667358221220dd758ae6e72f7c23d4879e696abbd0954f36b6f3436c1645f375a6f42a0784f864736f6c63430008110033",
  "linkReferences": {},
  "deployedLinkReferences": {}
}